:0300000002096F83
:0C096F00787FE4F6D8FD75810C020800CA
:100879003830353120496E746572666163650044AC
:1008890043204D6F746F72205374617274004D6F01
:10089900746F722053746F7000444143204F757414
:1008A9007075740050726F6772616D20456E6400D7
:100800001209097BFF7A0879791208E47FD07E0704
:100810001208C47F011209247BFF7A087988120824
:10082000E412097B7F887E131208C47F0112092419
:100830007BFF7A0879971208E41209857FD07E073A
:100840001208C47F011209247BFF7A0879A21208DA
:10085000E4E4F508AF0812098A7F327E001208C46A
:100860000508E508C394FF40EB7F011209247BFFD4
:090870007A0879AD1208E480FE5B
:100909007F381209247F0C1209247F061209247FDB
:0B091900011209247F0A7E000208C4BE
:100924008F09E50954F0F5A0C2A0C2A11208BEC205
:09093400A2E5091208B9C2A222D1
:10093D008F0CE50C54F0F5A0D2A0C2A11208BEC2D6
:09094D00A2E50C1208B9C2A222B5
:1008E4008B098A0A890BAB09AA0AA90B120956605B
:1008F40013050BE50B7002050A14F9120956FF12D1
:05090400093D80E22224
:03098A008F802239
:05097B00D290C29122A0
:05098000C290D291229B
:05098500C290C29122A6
:0B08B900C454F0F5A0D2A27F017E0025
:1008C400E4FDFCC3ED9FEC9E5015E4FBFA0BBB006A
:0F08D400010ABA04F8BBFBF50DBD00010C80E46E
:0108E30022F2
:10095600BB010689828A83E0225002E722BBFE029F
:09096600E32289828A83E49322D2
:00000001FF
